:20000000312D757F30757E30757D30757C3020A00330A00620A11330A10B20A10330A1001A
:20002000757B0A800F757B3C800A757B968005757BFF800020800330805E7480313E900162
:20004000531145800AE49360053142A380F72274C4313E3114310D115B80B3E57F04F57F3D
:200060009439600122757F30E57E04F57E943A600122757F30757E30E57D04F57D943A6094
:200080000122757F30757E30757D30E57C04F57C943A6001220200027480313E900166113E
:2000A000A3800AE49360053142A380992274C4313E3114310D11BA02000EE57F9430600653
:2000C000E57F14F57F22757F39E57E94306007E57E14F57E80D7757F39757E39E57D943097
:2000E0006007E57D14F57D80C4757F39757E39757D39E57C94306007E57C14F57C80AE75D4
:200100007F39757E39757D39757C3980A0AE7BDFFEDEFC22E57C3142310DE57D3142310D5F
:20012000E57E3142310DE57F3142310D227438313E7401313E740C313E7480313E22C2B18E
:200140008002D2B1F590DFFEDFFEC2B0DFFEDFFED2B0224355454E544120415343454E44FD
:1A016000454E54453A004355454E54412044455343454E44454E54453A00E3
:01ADDD00CEA7
:00000001FF
