:02000000804E30
:20000B00C0E0E57F603AE57DB444028018D57E0A757EC8C2B2D2B3D0E032C57EB57F1CD2EB
:20002B00B2D2B38016D57E0A757EC8C2B3D2B2D0E032C57EB57F04D2B3D2B2C57ED0E0324C
:20004B00D2B2D2B33211DE116C11F8311E3136117D11A011911182117D117611AF117D80D8
:20006B00EA757A30757B30757C3022314BE510F57D22DFFEDEFC22117D314BE510F57AF5C8
:20008B00773136117D22117D314BE510F57BF5783136117D22117D314BE510F57CF57931C5
:2000AB0036117D22E577540FF577E578540FF578E579540FF57975F064A4F579E57875F02B
:2000CB000AA42579257775F002A4F5F074C895F0F57F22758902758A48758C48D28C75A8DB
:2000EB0082C2B2757FC7757EC8757D41227438310974013109740C31097480310922C2B122
:20010B008002D2B1F590DFFEDFFEC2B0DFFEDFFED2B02274013109748031099001EE312C07
:20012B0022E4936005310DA380F72274C431097425310DE57C310DE57B310DE57A310D22F7
:20014B003163B41004F51080F7B41104F51080F0B5100280EBF510227EEFEEF5A0DFFEE573
:20016B00A0FD540FB40F09EE23FEB4FEEE741022EDB47E03744422B47D03742B22B47B0330
:20018B00743D22B47703742B22B4BE03743922B4BD03743622B4BB03743322B4B703744EA3
:2001AB0022B4DE03743822B4DD03743522B4DB03743222B4D703743022B4EE03743722B47C
:2001CB00ED03743422B4EB03743122B4E70374592274112254524142414A414E444F204186
:0F01EB004C3A00494E47524553452025203A00D3
:00000001FF
