:02000000805E20
:20002300C2AFC0E03098FDC298E599F57B1137D2AFD0E032E57BB43104757A0122B43204AF
:20004300757A4022B43304757A8022B43404757AFF22B444047579442275794122757AFF45
:20006300757941316C319E117D11AA3132313F3192E579B4417A11B780F311AA9001B011EE
:200083009C11AA9001C7119C11AA9001F0119C11AA900206119C11AA22C2AFE493600531BD
:2000A30064A380F7D2AF22C2AF740A3164740D3164D2AF2211BA22E57F04B43A06757F3072
:2000C30011C922F57F22E57E04B43A06757E3011D822F57E22E57D04B43A06757D3011E7F9
:2000E30022F57D22E57C04B43A03313222F57C2211F8020070E57F14B42FC8757F393104D9
:2001030022E57E14B42FCB757E39311022E57D14B42FCE757D39311C22E57C14B42FCE31EE
:200123002522757C39757D39757E39757F3922757C30757D30757E30757F3022C2AF740D07
:20014300316474C4317DE57C31813164E57D31813164E57E31813164E57F31813164D2AFFA
:2001630022F5993099FDC299227438317D7401317D740C317D7480317D22C2A78002D2A7B6
:20018300F580DFFEDFFEC2A6DFFEDFFED2A622AE7ADFFEDEFC22DFFEDEF722759850758941
:2001A30020758DFD758BFDD28E75A890224249454E56454E49444F2C2050524553494F4EA2
:2001C300453A200056454C4F43494441443A2031284D41532052415049444F29202D2034B5
:2001E300284D4153204C454E544F293A00413A204355454E544120415343454E44454E54DE
:19020300452000443A204355454E54412044455343454E44454E544500DD
:01ADDD00CEA7
:00000001FF
